{
  "contractName": "SmartCurrency",
  "abi": [
    {
      "constant": true,
      "inputs": [
        {
          "name": "",
          "type": "bytes32"
        }
      ],
      "name": "documentStructs",
      "outputs": [
        {
          "name": "name",
          "type": "bytes32"
        },
        {
          "name": "value",
          "type": "uint256"
        }
      ],
      "payable": false,
      "stateMutability": "view",
      "type": "function"
    },
    {
      "constant": false,
      "inputs": [
        {
          "name": "key",
          "type": "bytes32"
        },
        {
          "name": "name",
          "type": "bytes32"
        },
        {
          "name": "value",
          "type": "uint256"
        }
      ],
      "name": "StoreDocument",
      "outputs": [
        {
          "name": "success",
          "type": "bool"
        }
      ],
      "payable": false,
      "stateMutability": "nonpayable",
      "type": "function"
    }
  ],
  "bytecode": "0x6060604052341561000f57600080fd5b6101978061001e6000396000f30060606040526004361061004c576000357c0100000000000000000000000000000000000000000000000000000000900463ffffffff16806372061b9114610051578063c22cd3ee1461009b575b600080fd5b341561005c57600080fd5b6100766004808035600019169060200190919050506100f0565b6040518083600019166000191681526020018281526020019250505060405180910390f35b34156100a657600080fd5b6100d660048080356000191690602001909190803560001916906020019091908035906020019091905050610114565b604051808215151515815260200191505060405180910390f35b60016020528060005260406000206000915090508060000154908060010154905082565b600082600160008660001916600019168152602001908152602001600020600001816000191690555081600160008660001916600019168152602001908152602001600020600101819055506001905093925050505600a165627a7a72305820c6ff9431302c162ebd07f426014a4f3220f47861c428a101fd9eb2b46bb863750029",
  "source": "pragma solidity ^0.4.6;\n\ncontract SmartCurrency {\n   mapping (address => bytes32) Key;\n // This is a Type\n struct DocumentStruct{\n   // Not possible to pass strings between contracts at this time\n   bytes32 name;\n   uint value;\n  \n }\n\n // This is a namespace where we will store docs of Type DocumentStruct\n mapping(bytes32 => DocumentStruct) public documentStructs;\n\n // Set values in storage\n function StoreDocument(bytes32 key, bytes32 name, uint value) returns (bool success) {\n  documentStructs[key].name  = name;\n  documentStructs[key].value = value;\n  return true;\n }\n\n}\n\ncontract SmartCurrencyE {\n\n // \"d\" is of type \"D\" which is a contract ^\n SmartCurrency d;\n\n // Define the Type in this context\n struct DocumentStruct{\n   bytes32 name;\n   uint value;\n }    \n\n // For this to work, pass in D's address to E's constructor\n function E(address DContractAddress) {\n   d = SmartCurrency(DContractAddress);\n }\n\n function RetrieveData(bytes32 key)\n   public\n   constant\n   returns(bytes32, uint)\n {\n   // Declare a temporary \"doc\" to hold a DocumentStruct\n   DocumentStruct memory doc;\n   // Get it from the \"public\" mapping's free getter.\n   (doc.name, doc.value) = d.documentStructs(key);\n   // return values with a fixed sized layout\n   return(doc.name, doc.value);\n }\n}",
  "sourcePath": "/home/rpqb-desk-003/myproject/contracts/SmartCurrency.sol",
  "compiler": {
    "name": "solc",
    "version": "0.4.19+commit.c4cbbb05.Emscripten.clang"
  },
  "schemaVersion": "2.0.0",
  "updatedAt": "2018-03-19T09:40:04.377Z"
}