{
  "contractName": "SmartCurrencyE",
  "abi": [
    {
      "constant": false,
      "inputs": [
        {
          "name": "DContractAddress",
          "type": "address"
        }
      ],
      "name": "E",
      "outputs": [],
      "payable": false,
      "stateMutability": "nonpayable",
      "type": "function"
    },
    {
      "constant": true,
      "inputs": [
        {
          "name": "key",
          "type": "bytes32"
        }
      ],
      "name": "RetrieveData",
      "outputs": [
        {
          "name": "",
          "type": "bytes32"
        },
        {
          "name": "",
          "type": "uint256"
        }
      ],
      "payable": false,
      "stateMutability": "view",
      "type": "function"
    }
  ],
  "bytecode": "0x6060604052341561000f57600080fd5b6102598061001e6000396000f30060606040526004361061004c576000357c0100000000000000000000000000000000000000000000000000000000900463ffffffff1680638dd4f65214610051578063bd1155611461009b575b600080fd5b341561005c57600080fd5b6100766004808035600019169060200190919050506100d4565b6040518083600019166000191681526020018281526020019250505060405180910390f35b34156100a657600080fd5b6100d2600480803573ffffffffffffffffffffffffffffffffffffffff169060200190919050506101cd565b005b6000806100df610210565b6000809054906101000a900473ffffffffffffffffffffffffffffffffffffffff1673ffffffffffffffffffffffffffffffffffffffff166372061b91856000604051604001526040518263ffffffff167c01000000000000000000000000000000000000000000000000000000000281526004018082600019166000191681526020019150506040805180830381600087803b151561017e57600080fd5b6102c65a03f1151561018f57600080fd5b505050604051805190602001805190508260000183602001828152508260001916600019168152505050806000015181602001519250925050915091565b806000806101000a81548173ffffffffffffffffffffffffffffffffffffffff021916908373ffffffffffffffffffffffffffffffffffffffff16021790555050565b6040805190810160405280600080191681526020016000815250905600a165627a7a72305820d22709cb8fdfaa40366227be24eee74fdc1a40e37f49475d487c7af97bf6d1340029",
  "source": "pragma solidity ^0.4.6;\n\ncontract SmartCurrency {\n   mapping (address => bytes32) Key;\n // This is a Type\n struct DocumentStruct{\n   // Not possible to pass strings between contracts at this time\n   bytes32 name;\n   uint value;\n  \n }\n   \n\n // This is a namespace where we will store docs of Type DocumentStruct\n mapping(bytes32 => DocumentStruct) public documentStructs;\n\n // Set values in storage\n function StoreDocument(bytes32 key, bytes32 name, uint value) returns (bool success) {\n  documentStructs[key].name  = name;\n  documentStructs[key].value = value;\n  return true;\n }\n\n}\n\n\ncontract SmartCurrencyE {\n\n // \"d\" is of type \"D\" which is a contract ^\n SmartCurrency d;\n\n // Define the Type in this context\n struct DocumentStruct{\n   bytes32 name;\n   uint value;\n }    \n\n // For this to work, pass in D's address to E's constructor\n function E(address DContractAddress) {\n   d = SmartCurrency(DContractAddress);\n }\n\n function RetrieveData(bytes32 key)\n   public\n   constant\n   returns(bytes32, uint)\n {\n   // Declare a temporary \"doc\" to hold a DocumentStruct\n   DocumentStruct memory doc;\n   // Get it from the \"public\" mapping's free getter.\n   (doc.name, doc.value) = d.documentStructs(key);\n   // return values with a fixed sized layout\n   return(doc.name, doc.value);\n }\n}",
  "sourcePath": "/home/rpqb-desk-003/myproject/contracts/SmartCurrency.sol",
  "compiler": {
    "name": "solc",
    "version": "0.4.19+commit.c4cbbb05.Emscripten.clang"
  },
  "schemaVersion": "2.0.0",
  "updatedAt": "2018-03-20T06:53:25.620Z"
}