{
  "contractName": "SmartCurrency",
  "abi": [
    {
      "constant": true,
      "inputs": [
        {
          "name": "",
          "type": "bytes32"
        }
      ],
      "name": "documentStructs",
      "outputs": [
        {
          "name": "name",
          "type": "string"
        },
        {
          "name": "manAddrs",
          "type": "string"
        },
        {
          "name": "venAddrs",
          "type": "string"
        },
        {
          "name": "tot",
          "type": "uint256"
        }
      ],
      "payable": false,
      "stateMutability": "view",
      "type": "function"
    },
    {
      "constant": false,
      "inputs": [
        {
          "name": "key",
          "type": "bytes32"
        },
        {
          "name": "name",
          "type": "string"
        },
        {
          "name": "manAddrs",
          "type": "string"
        },
        {
          "name": "venAddrs",
          "type": "string"
        },
        {
          "name": "tot",
          "type": "uint256"
        }
      ],
      "name": "StoreDocument",
      "outputs": [
        {
          "name": "success",
          "type": "bool"
        }
      ],
      "payable": false,
      "stateMutability": "nonpayable",
      "type": "function"
    }
  ],
  "bytecode": "0x6060604052341561000f57600080fd5b6104fd8061001e6000396000f30060606040526004361061004c576000357c0100000000000000000000000000000000000000000000000000000000900463ffffffff16806372061b9114610051578063eb0cf03514610227575b600080fd5b341561005c57600080fd5b610076600480803560001916906020019091905050610338565b6040518080602001806020018060200185815260200184810384528881815460018160011615610100020316600290048152602001915080546001816001161561010002031660029004801561010d5780601f106100e25761010080835404028352916020019161010d565b820191906000526020600020905b8154815290600101906020018083116100f057829003601f168201915b50508481038352878181546001816001161561010002031660029004815260200191508054600181600116156101000203166002900480156101905780601f1061016557610100808354040283529160200191610190565b820191906000526020600020905b81548152906001019060200180831161017357829003601f168201915b50508481038252868181546001816001161561010002031660029004815260200191508054600181600116156101000203166002900480156102135780601f106101e857610100808354040283529160200191610213565b820191906000526020600020905b8154815290600101906020018083116101f657829003601f168201915b505097505050505050505060405180910390f35b341561023257600080fd5b61031e60048080356000191690602001909190803590602001908201803590602001908080601f0160208091040260200160405190810160405280939291908181526020018383808284378201915050505050509190803590602001908201803590602001908080601f0160208091040260200160405190810160405280939291908181526020018383808284378201915050505050509190803590602001908201803590602001908080601f01602080910402602001604051908101604052809392919081815260200183838082843782019150505050505091908035906020019091905050610365565b604051808215151515815260200191505060405180910390f35b60006020528060005260406000206000915090508060000190806001019080600201908060030154905084565b6000846000808860001916600019168152602001908152602001600020600001908051906020019061039892919061042c565b5083600080886000191660001916815260200190815260200160002060010190805190602001906103ca92919061042c565b5082600080886000191660001916815260200190815260200160002060020190805190602001906103fc92919061042c565b50816000808860001916600019168152602001908152602001600020600301819055506001905095945050505050565b828054600181600116156101000203166002900490600052602060002090601f016020900481019282601f1061046d57805160ff191683800117855561049b565b8280016001018555821561049b579182015b8281111561049a57825182559160200191906001019061047f565b5b5090506104a891906104ac565b5090565b6104ce91905b808211156104ca5760008160009055506001016104b2565b5090565b905600a165627a7a72305820ca570000250d573cf7f73904f0df57db40392e1ff0a9c38c414983cd84aae63c0029",
  "source": "\npragma solidity ^0.4.6;\ncontract SmartCurrency {\n    \n\n\n\n // This is a Type\n struct DocumentStruct{\n   // Not possible to pass strings between contracts at this time\n   string name;\n   string manAddrs;\n   string venAddrs;\n   uint tot;\n  \n  \n }\n   \n\n // This is a namespace where we will store docs of Type DocumentStruct\n  mapping(bytes32 => DocumentStruct) public documentStructs;\n\n\n // Set values in storage\n function StoreDocument(bytes32 key, string name, string manAddrs, string venAddrs, uint tot ) returns (bool success) {\n  documentStructs[key].name  = name;\ndocumentStructs[key].manAddrs = manAddrs;\ndocumentStructs[key].venAddrs = venAddrs;\ndocumentStructs[key].tot = tot;\n  return true;\n }\n \n}",
  "sourcePath": "/home/rpqb-desk-003/myproject/contracts/SmartCurrency.sol",
  "compiler": {
    "name": "solc",
    "version": "0.4.19+commit.c4cbbb05.Emscripten.clang"
  },
  "schemaVersion": "2.0.0",
  "updatedAt": "2018-03-21T05:22:41.589Z"
}