{
  "contractName": "SmartCurrency",
  "abi": [
    {
      "constant": true,
      "inputs": [
        {
          "name": "",
          "type": "bytes32"
        }
      ],
      "name": "documentStructs",
      "outputs": [
        {
          "name": "file",
          "type": "string"
        }
      ],
      "payable": false,
      "stateMutability": "view",
      "type": "function"
    },
    {
      "constant": false,
      "inputs": [
        {
          "name": "key",
          "type": "bytes32"
        },
        {
          "name": "file",
          "type": "string"
        }
      ],
      "name": "StoreDocument",
      "outputs": [
        {
          "name": "success",
          "type": "bool"
        }
      ],
      "payable": false,
      "stateMutability": "nonpayable",
      "type": "function"
    }
  ],
  "bytecode": "0x6060604052341561000f57600080fd5b6102bc8061001e6000396000f30060606040526004361061004c576000357c0100000000000000000000000000000000000000000000000000000000900463ffffffff16806372061b9114610051578063f14bf89e1461010e575b600080fd5b341561005c57600080fd5b610076600480803560001916906020019091905050610190565b60405180806020018281038252838181546001816001161561010002031660029004815260200191508054600181600116156101000203166002900480156100ff5780601f106100d4576101008083540402835291602001916100ff565b820191906000526020600020905b8154815290600101906020018083116100e257829003601f168201915b50509250505060405180910390f35b341561011957600080fd5b61017660048080356000191690602001909190803590602001908201803590602001908080601f016020809104026020016040519081016040528093929190818152602001838380828437820191505050505050919050506101ad565b604051808215151515815260200191505060405180910390f35b600060205280600052604060002060009150905080600001905081565b600081600080856000191660001916815260200190815260200160002060000190805190602001906101e09291906101eb565b506001905092915050565b828054600181600116156101000203166002900490600052602060002090601f016020900481019282601f1061022c57805160ff191683800117855561025a565b8280016001018555821561025a579182015b8281111561025957825182559160200191906001019061023e565b5b509050610267919061026b565b5090565b61028d91905b80821115610289576000816000905550600101610271565b5090565b905600a165627a7a723058200a33b3f31376c538b36b910f8e28e8af43a891d105b809ad78fd35994c0100130029",
  "source": "pragma solidity ^0.4.6;\ncontract SmartCurrency {\n\n  \n\n\n // This is a Type\n struct DocumentStruct{\n   // Not possible to pass strings between contracts at this time\n   string file;\n  \n\n  \n }\n   \n\n // This is a namespace where we will store docs of Type DocumentStruct\n  mapping(bytes32 => DocumentStruct) public documentStructs;\n\n\n // Set values in storage\n function StoreDocument( bytes32 key,  string file) returns (bool success) {\n  documentStructs[key].file  = file;\n \n \n\n  return true;\n }\n \n}",
  "sourcePath": "/home/rpqb-desk-003/Ethreum-project/contracts/SmartCurrency.sol",
  "compiler": {
    "name": "solc",
    "version": "0.4.19+commit.c4cbbb05.Emscripten.clang"
  },
  "schemaVersion": "2.0.0",
  "updatedAt": "2018-04-04T14:41:46.066Z"
}