{
  "contractName": "SmartCurrency",
  "abi": [
    {
      "constant": true,
      "inputs": [
        {
          "name": "",
          "type": "bytes32"
        }
      ],
      "name": "documentStructs",
      "outputs": [
        {
          "name": "name",
          "type": "string"
        },
        {
          "name": "updateString",
          "type": "string"
        }
      ],
      "payable": false,
      "stateMutability": "view",
      "type": "function"
    },
    {
      "constant": false,
      "inputs": [
        {
          "name": "key",
          "type": "bytes32"
        },
        {
          "name": "name",
          "type": "string"
        },
        {
          "name": "updateString",
          "type": "string"
        }
      ],
      "name": "StoreDocument",
      "outputs": [
        {
          "name": "success",
          "type": "bool"
        }
      ],
      "payable": false,
      "stateMutability": "nonpayable",
      "type": "function"
    }
  ],
  "bytecode": "0x6060604052341561000f57600080fd5b6103c28061001e6000396000f30060606040526004361061004c576000357c0100000000000000000000000000000000000000000000000000000000900463ffffffff1680634a75c0ff1461005157806372061b9114610116575b600080fd5b341561005c57600080fd5b6100fc60048080356000191690602001909190803590602001908201803590602001908080601f0160208091040260200160405190810160405280939291908181526020018383808284378201915050505050509190803590602001908201803590602001908080601f0160208091040260200160405190810160405280939291908181526020018383808284378201915050505050509190505061025c565b604051808215151515815260200191505060405180910390f35b341561012157600080fd5b61013b6004808035600019169060200190919050506102cf565b6040518080602001806020018381038352858181546001816001161561010002031660029004815260200191508054600181600116156101000203166002900480156101c85780601f1061019d576101008083540402835291602001916101c8565b820191906000526020600020905b8154815290600101906020018083116101ab57829003601f168201915b505083810382528481815460018160011615610100020316600290048152602001915080546001816001161561010002031660029004801561024b5780601f106102205761010080835404028352916020019161024b565b820191906000526020600020905b81548152906001019060200180831161022e57829003601f168201915b505094505050505060405180910390f35b60008260016000866000191660001916815260200190815260200160002060000190805190602001906102909291906102f1565b508160016000866000191660001916815260200190815260200160002060010190805190602001906102c39291906102f1565b50600190509392505050565b6001602052806000526040600020600091509050806000019080600101905082565b828054600181600116156101000203166002900490600052602060002090601f016020900481019282601f1061033257805160ff1916838001178555610360565b82800160010185558215610360579182015b8281111561035f578251825591602001919060010190610344565b5b50905061036d9190610371565b5090565b61039391905b8082111561038f576000816000905550600101610377565b5090565b905600a165627a7a72305820d6e06956a5743154cb020c02f204813ed2414f841a5da4f0230c531dfbc69d950029",
  "source": "\npragma solidity ^0.4.6;\ncontract SmartCurrency {\n   mapping (address => Usr ) Users;\n    \n   struct Usr {\n    \n    string [] details;\n    \n    }\n\n\n // This is a Type\n struct DocumentStruct{\n   // Not possible to pass strings between contracts at this time\n   string name;\n string updateString;\n  \n }\n   \n\n // This is a namespace where we will store docs of Type DocumentStruct\n  mapping(bytes32 => DocumentStruct) public documentStructs;\n\n\n // Set values in storage\n function StoreDocument(bytes32 key, string name, string updateString) returns (bool success) {\n  documentStructs[key].name  = name;\n  documentStructs[key].updateString  = updateString;\n \n\n  return true;\n }\n \n}",
  "sourcePath": "/home/rpqb-desk-004/Ethreum-project/contracts/SmartCurrency.sol",
  "compiler": {
    "name": "solc",
    "version": "0.4.19+commit.c4cbbb05.Emscripten.clang"
  },
  "schemaVersion": "2.0.0",
  "updatedAt": "2018-03-28T04:31:16.498Z"
}